{
  "_format": "hh-sol-artifact-1",
  "contractName": "D_Swap_Factorys",
  "sourceName": "contracts/Swap_Factory.sol",
  "abi": [
    {
      "anonymous": false,
      "inputs": [
        {
          "indexed": true,
          "internalType": "address",
          "name": "_from",
          "type": "address"
        },
        {
          "indexed": true,
          "internalType": "address",
          "name": "_to",
          "type": "address"
        }
      ],
      "name": "OwnershipTransferred",
      "type": "event"
    },
    {
      "inputs": [
        {
          "internalType": "address",
          "name": "user",
          "type": "address"
        },
        {
          "internalType": "address",
          "name": "token_head",
          "type": "address"
        },
        {
          "internalType": "address",
          "name": "token_tail",
          "type": "address"
        },
        {
          "internalType": "uint256",
          "name": "sys_reward",
          "type": "uint256"
        }
      ],
      "name": "Create",
      "outputs": [
        {
          "internalType": "address",
          "name": "",
          "type": "address"
        }
      ],
      "stateMutability": "payable",
      "type": "function"
    },
    {
      "inputs": [
        {
          "internalType": "address",
          "name": "addr",
          "type": "address"
        }
      ],
      "name": "Set_DSwap_Main_Address",
      "outputs": [],
      "stateMutability": "nonpayable",
      "type": "function"
    },
    {
      "inputs": [],
      "name": "acceptOwnership",
      "outputs": [],
      "stateMutability": "nonpayable",
      "type": "function"
    },
    {
      "inputs": [],
      "name": "m_DSwap_Main_Address",
      "outputs": [
        {
          "internalType": "address",
          "name": "",
          "type": "address"
        }
      ],
      "stateMutability": "view",
      "type": "function"
    },
    {
      "inputs": [],
      "name": "newOwner",
      "outputs": [
        {
          "internalType": "address",
          "name": "",
          "type": "address"
        }
      ],
      "stateMutability": "view",
      "type": "function"
    },
    {
      "inputs": [],
      "name": "owner",
      "outputs": [
        {
          "internalType": "address",
          "name": "",
          "type": "address"
        }
      ],
      "stateMutability": "view",
      "type": "function"
    },
    {
      "inputs": [
        {
          "internalType": "address",
          "name": "_newOwner",
          "type": "address"
        }
      ],
      "name": "transferOwnership",
      "outputs": [],
      "stateMutability": "nonpayable",
      "type": "function"
    }
  ],
  "bytecode": "0x60806040526000600260006101000a81548173ffffffffffffffffffffffffffffffffffffffff021916908373ffffffffffffffffffffffffffffffffffffffff16021790555034801561005257600080fd5b50336000806101000a81548173ffffffffffffffffffffffffffffffffffffffff021916908373ffffffffffffffffffffffffffffffffffffffff160217905550614e48806100a26000396000f3fe6080604052600436106100705760003560e01c80638da5cb5b1161004e5780638da5cb5b14610195578063cc5a671a146101d6578063d4ee1d9014610217578063f2fde38b1461025857610070565b806336620b0e1461007557806339214dcf146100c657806379ba50971461017e575b600080fd5b34801561008157600080fd5b506100c46004803603602081101561009857600080fd5b81019080803573ffffffffffffffffffffffffffffffffffffffff1690602001909291905050506102a9565b005b610152600480360360808110156100dc57600080fd5b81019080803573ffffffffffffffffffffffffffffffffffffffff169060200190929190803573ffffffffffffffffffffffffffffffffffffffff169060200190929190803573ffffffffffffffffffffffffffffffffffffffff16906020019092919080359060200190929190505050610345565b604051808273ffffffffffffffffffffffffffffffffffffffff16815260200191505060405180910390f35b34801561018a57600080fd5b50610193610424565b005b3480156101a157600080fd5b506101aa6105c0565b604051808273ffffffffffffffffffffffffffffffffffffffff16815260200191505060405180910390f35b3480156101e257600080fd5b506101eb6105e4565b604051808273ffffffffffffffffffffffffffffffffffffffff16815260200191505060405180910390f35b34801561022357600080fd5b5061022c61060a565b604051808273ffffffffffffffffffffffffffffffffffffffff16815260200191505060405180910390f35b34801561026457600080fd5b506102a76004803603602081101561027b57600080fd5b81019080803573ffffffffffffffffffffffffffffffffffffffff169060200190929190505050610630565b005b60008054906101000a900473ffffffffffffffffffffffffffffffffffffffff1673ffffffffffffffffffffffffffffffffffffffff163373ffffffffffffffffffffffffffffffffffffffff161461030157600080fd5b80600260006101000a81548173ffffffffffffffffffffffffffffffffffffffff021916908373ffffffffffffffffffffffffffffffffffffffff16021790555050565b600080600260009054906101000a900473ffffffffffffffffffffffffffffffffffffffff168686868660405161037b906106cc565b808673ffffffffffffffffffffffffffffffffffffffff1681526020018573ffffffffffffffffffffffffffffffffffffffff1681526020018473ffffffffffffffffffffffffffffffffffffffff1681526020018373ffffffffffffffffffffffffffffffffffffffff16815260200182815260200195505050505050604051809103906000f080158015610415573d6000803e3d6000fd5b50905080915050949350505050565b600160009054906101000a900473ffffffffffffffffffffffffffffffffffffffff1673ffffffffffffffffffffffffffffffffffffffff163373ffffffffffffffffffffffffffffffffffffffff161461047e57600080fd5b600160009054906101000a900473ffffffffffffffffffffffffffffffffffffffff1673ffffffffffffffffffffffffffffffffffffffff1660008054906101000a900473ffffffffffffffffffffffffffffffffffffffff1673ffffffffffffffffffffffffffffffffffffffff167f8be0079c531659141344cd1fd0a4f28419497f9722a3daafe3b4186f6b6457e060405160405180910390a3600160009054906101000a900473ffffffffffffffffffffffffffffffffffffffff166000806101000a81548173ffffffffffffffffffffffffffffffffffffffff021916908373ffffffffffffffffffffffffffffffffffffffff1602179055506000600160006101000a81548173ffffffffffffffffffffffffffffffffffffffff021916908373ffffffffffffffffffffffffffffffffffffffff160217905550565b60008054906101000a900473ffffffffffffffffffffffffffffffffffffffff1681565b600260009054906101000a900473ffffffffffffffffffffffffffffffffffffffff1681565b600160009054906101000a900473ffffffffffffffffffffffffffffffffffffffff1681565b60008054906101000a900473ffffffffffffffffffffffffffffffffffffffff1673ffffffffffffffffffffffffffffffffffffffff163373ffffffffffffffffffffffffffffffffffffffff161461068857600080fd5b80600160006101000a81548173ffffffffffffffffffffffffffffffffffffffff021916908373ffffffffffffffffffffffffffffffffffffffff16021790555050565b614739806106da8339019056fe60806040526000600360006101000a81548160ff0219169083151502179055506040518060400160405280600581526020017f302e302e31000000000000000000000000000000000000000000000000000000815250600490805190602001906200006c9291906200027f565b506000601760006101000a81548160ff0219169083151502179055506000601760016101000a81548160ff0219169083151502179055506000601760026101000a81548160ff021916908315150217905550348015620000cb57600080fd5b506040516200473938038062004739833981810160405260a0811015620000f157600080fd5b810190808051906020019092919080519060200190929190805190602001909291908051906020019092919080519060200190929190505050336000806101000a81548173ffffffffffffffffffffffffffffffffffffffff021916908373ffffffffffffffffffffffffffffffffffffffff160217905550836000806101000a81548173ffffffffffffffffffffffffffffffffffffffff021916908373ffffffffffffffffffffffffffffffffffffffff16021790555084600360016101000a81548173ffffffffffffffffffffffffffffffffffffffff021916908373ffffffffffffffffffffffffffffffffffffffff16021790555082600560006101000a81548173ffffffffffffffffffffffffffffffffffffffff021916908373ffffffffffffffffffffffffffffffffffffffff16021790555081600660006101000a81548173ffffffffffffffffffffffffffffffffffffffff021916908373ffffffffffffffffffffffffffffffffffffffff16021790555080600281905550505050505062000325565b828054600181600116156101000203166002900490600052602060002090601f016020900481019282601f10620002c257805160ff1916838001178555620002f3565b82800160010185558215620002f3579182015b82811115620002f2578251825591602001919060010190620002d5565b5b50905062000302919062000306565b5090565b5b808211156200032157600081600090555060010162000307565b5090565b61440480620003356000396000f3fe6080604052600436106102295760003560e01c80639515e30b11610123578063bd3462fa116100ab578063d90f2e791161006f578063d90f2e7914610c1b578063d99f221814610c6c578063e7f988c214610c97578063f2fde38b14610cc4578063f463012814610d1557610230565b8063bd3462fa14610af2578063bff292a514610b33578063c9064dfc14610b6e578063cc5a671a14610b99578063d4ee1d9014610bda57610230565b8063a4f4f031116100f2578063a4f4f031146108a3578063a7d16f30146108e4578063a9e6a467146109d6578063b23fc1b614610a17578063b487efc814610a4457610230565b80639515e30b146107b55780639630291c146107e05780639b2bb6e0146108215780639b2e2e551461086257610230565b806345923557116101b15780637eda493d116101755780637eda493d146104df57806382516516146105305780638da5cb5b146107085780638db5a2fd146107495780638ed95dad1461078a57610230565b80634592355714610430578063631661e21461045b578063673fa07f146104865780636c9548ed1461049d57806379ba5097146104c857610230565b806332f5f0cc116101f857806332f5f0cc146102f657806339e19694146103315780633c3b93f7146103485780633d1aecb314610373578063447d726b146103a057610230565b80631c0c0af51461023257806322281bc5146102735780632d59f19d1461029e578063324f5e09146102cb57610230565b3661023057005b005b34801561023e57600080fd5b50610247610d40565b604051808273ffffffffffffffffffffffffffffffffffffffff16815260200191505060405180910390f35b34801561027f57600080fd5b50610288610d66565b6040518082815260200191505060405180910390f35b3480156102aa57600080fd5b506102b3610d6c565b60405180821515815260200191505060405180910390f35b3480156102d757600080fd5b506102e0610d7f565b6040518082815260200191505060405180910390f35b34801561030257600080fd5b5061032f6004803603602081101561031957600080fd5b8101908080359060200190929190505050610d85565b005b34801561033d57600080fd5b50610346610ffa565b005b34801561035457600080fd5b5061035d6114a6565b6040518082815260200191505060405180910390f35b34801561037f57600080fd5b506103886114ac565b60405180821515815260200191505060405180910390f35b3480156103ac57600080fd5b506103b56114bf565b6040518080602001828103825283818151815260200191508051906020019080838360005b838110156103f55780820151818401526020810190506103da565b50505050905090810190601f1680156104225780820380516001836020036101000a031916815260200191505b509250505060405180910390f35b34801561043c57600080fd5b5061044561155d565b6040518082815260200191505060405180910390f35b34801561046757600080fd5b50610470611563565b6040518082815260200191505060405180910390f35b34801561049257600080fd5b5061049b611569565b005b3480156104a957600080fd5b506104b2611a15565b6040518082815260200191505060405180910390f35b3480156104d457600080fd5b506104dd611a1b565b005b3480156104eb57600080fd5b5061052e6004803603602081101561050257600080fd5b81019080803573ffffffffffffffffffffffffffffffffffffffff169060200190929190505050611bb7565b005b34801561053c57600080fd5b5061068d6004803603604081101561055357600080fd5b810190808035906020019064010000000081111561057057600080fd5b82018360208201111561058257600080fd5b803590602001918460018302840111640100000000831117156105a457600080fd5b91908080601f016020809104026020016040519081016040528093929190818152602001838380828437600081840152601f19601f8201169050808301925050505050505091929192908035906020019064010000000081111561060757600080fd5b82018360208201111561061957600080fd5b8035906020019184600183028401116401000000008311171561063b57600080fd5b91908080601f016020809104026020016040519081016040528093929190818152602001838380828437600081840152601f19601f820116905080830192505050505050509192919290505050611fa4565b6040518080602001828103825283818151815260200191508051906020019080838360005b838110156106cd5780820151818401526020810190506106b2565b50505050905090810190601f1680156106fa5780820380516001836020036101000a031916815260200191505b509250505060405180910390f35b34801561071457600080fd5b5061071d6120fd565b604051808273ffffffffffffffffffffffffffffffffffffffff16815260200191505060405180910390f35b34801561075557600080fd5b5061075e612121565b604051808273ffffffffffffffffffffffffffffffffffffffff16815260200191505060405180910390f35b34801561079657600080fd5b5061079f612147565b6040518082815260200191505060405180910390f35b3480156107c157600080fd5b506107ca61214d565b6040518082815260200191505060405180910390f35b3480156107ec57600080fd5b506107f5612153565b604051808273ffffffffffffffffffffffffffffffffffffffff16815260200191505060405180910390f35b34801561082d57600080fd5b50610836612179565b604051808273ffffffffffffffffffffffffffffffffffffffff16815260200191505060405180910390f35b34801561086e57600080fd5b5061087761219f565b604051808273ffffffffffffffffffffffffffffffffffffffff16815260200191505060405180910390f35b3480156108af57600080fd5b506108b86121c5565b604051808273ffffffffffffffffffffffffffffffffffffffff16815260200191505060405180910390f35b3480156108f057600080fd5b506109d46004803603606081101561090757600080fd5b81019080803573ffffffffffffffffffffffffffffffffffffffff169060200190929190803590602001909291908035906020019064010000000081111561094e57600080fd5b82018360208201111561096057600080fd5b8035906020019184600183028401116401000000008311171561098257600080fd5b91908080601f016020809104026020016040519081016040528093929190818152602001838380828437600081840152601f19601f8201169050808301925050505050505091929192905050506121eb565b005b3480156109e257600080fd5b506109eb6122fe565b604051808273ffffffffffffffffffffffffffffffffffffffff16815260200191505060405180910390f35b348015610a2357600080fd5b50610a2c612324565b60405180821515815260200191505060405180910390f35b348015610a5057600080fd5b50610af06004803603610100811015610a6857600080fd5b8101908080359060200190929190803590602001909291908035906020019092919080359060200190929190803573ffffffffffffffffffffffffffffffffffffffff169060200190929190803573ffffffffffffffffffffffffffffffffffffffff1690602001909291908035906020019092919080359060200190929190505050612337565b005b348015610afe57600080fd5b50610b07612702565b604051808273ffffffffffffffffffffffffffffffffffffffff16815260200191505060405180910390f35b348015610b3f57600080fd5b50610b6c60048036036020811015610b5657600080fd5b8101908080359060200190929190505050612728565b005b348015610b7a57600080fd5b50610b8361299d565b6040518082815260200191505060405180910390f35b348015610ba557600080fd5b50610bae6129a3565b604051808273ffffffffffffffffffffffffffffffffffffffff16815260200191505060405180910390f35b348015610be657600080fd5b50610bef6129c9565b604051808273ffffffffffffffffffffffffffffffffffffffff16815260200191505060405180910390f35b348015610c2757600080fd5b50610c6a60048036036020811015610c3e57600080fd5b81019080803573ffffffffffffffffffffffffffffffffffffffff1690602001909291905050506129ef565b005b348015610c7857600080fd5b50610c81612ddc565b6040518082815260200191505060405180910390f35b348015610ca357600080fd5b50610cac612de2565b60405180821515815260200191505060405180910390f35b348015610cd057600080fd5b50610d1360048036036020811015610ce757600080fd5b81019080803573ffffffffffffffffffffffffffffffffffffffff169060200190929190505050612df5565b005b348015610d2157600080fd5b50610d2a612e91565b6040518082815260200191505060405180910390f35b600760009054906101000a900473ffffffffffffffffffffffffffffffffffffffff1681565b60105481565b600360009054906101000a900460ff1681565b60145481565b601454431115610d9457600080fd5b3373ffffffffffffffffffffffffffffffffffffffff16600c60009054906101000a900473ffffffffffffffffffffffffffffffffffffffff1673ffffffffffffffffffffffffffffffffffffffff1614610dee57600080fd5b601054600e5410610dfe57600080fd5b6000600e5460105403905081811115610e15578190505b6000600660009054906101000a900473ffffffffffffffffffffffffffffffffffffffff1673ffffffffffffffffffffffffffffffffffffffff166323b872dd3330856040518463ffffffff1660e01b8152600401808473ffffffffffffffffffffffffffffffffffffffff1681526020018373ffffffffffffffffffffffffffffffffffffffff1681526020018281526020019350505050602060405180830381600087803b158015610ec857600080fd5b505af1158015610edc573d6000803e3d6000fd5b505050506040513d6020811015610ef257600080fd5b81019080805190602001909291905050509050600015158115151415610f1757600080fd5b81600e5401600e81905550600360019054906101000a900473ffffffffffffffffffffffffffffffffffffffff1673ffffffffffffffffffffffffffffffffffffffff1663e955746a303386600e546040518563ffffffff1660e01b8152600401808573ffffffffffffffffffffffffffffffffffffffff1681526020018473ffffffffffffffffffffffffffffffffffffffff168152602001838152602001828152602001945050505050600060405180830381600087803b158015610fdd57600080fd5b505af1158015610ff1573d6000803e3d6000fd5b50505050505050565b6000801515601760019054906101000a900460ff16151514611084576040517f08c379a000000000000000000000000000000000000000000000000000000000815260040180806020018281038252600d8152602001807f4f7074696f6e20436c6f7365640000000000000000000000000000000000000081525060200191505060405180910390fd5b6001601760016101000a81548160ff021916908315150217905550601354431180156110c3575060001515601760009054906101000a900460ff161515145b1561111e57611119600560009054906101000a900473ffffffffffffffffffffffffffffffffffffffff16600b60009054906101000a900473ffffffffffffffffffffffffffffffffffffffff16600d54612e97565b600190505b60145443118015611142575060011515601760009054906101000a900460ff161515145b156113da57600d54600f541115801561115f5750600e5460105411155b156111ba576111b5600660009054906101000a900473ffffffffffffffffffffffffffffffffffffffff16600b60009054906101000a900473ffffffffffffffffffffffffffffffffffffffff16601054612e97565b600290505b600d54600f54111580156111d15750600e54601054115b1561127d57611227600660009054906101000a900473ffffffffffffffffffffffffffffffffffffffff16600b60009054906101000a900473ffffffffffffffffffffffffffffffffffffffff16601254612e97565b611278600560009054906101000a900473ffffffffffffffffffffffffffffffffffffffff16600b60009054906101000a900473ffffffffffffffffffffffffffffffffffffffff16600d54612e97565b600390505b600d54600f541180156112935750600e54601054115b15611353576112fd600560009054906101000a900473ffffffffffffffffffffffffffffffffffffffff16600b60009054906101000a900473ffffffffffffffffffffffffffffffffffffffff166112f8601154600d5461318390919063ffffffff16565b612e97565b61134e600560009054906101000a900473ffffffffffffffffffffffffffffffffffffffff16600360019054906101000a900473ffffffffffffffffffffffffffffffffffffffff16601154612e97565b600490505b600d54600f5411801561136a5750600e5460105411155b156113d9576113d4600560009054906101000a900473ffffffffffffffffffffffffffffffffffffffff16600b60009054906101000a900473ffffffffffffffffffffffffffffffffffffffff166113cf601154600e5461318390919063ffffffff16565b612e97565b600590505b5b600360019054906101000a900473ffffffffffffffffffffffffffffffffffffffff1673ffffffffffffffffffffffffffffffffffffffff1663af8044203033846040518463ffffffff1660e01b8152600401808473ffffffffffffffffffffffffffffffffffffffff1681526020018373ffffffffffffffffffffffffffffffffffffffff1681526020018281526020019350505050600060405180830381600087803b15801561148b57600080fd5b505af115801561149f573d6000803e3d6000fd5b5050505050565b60155481565b601760029054906101000a900460ff1681565b60048054600181600116156101000203166002900480601f0160208091040260200160405190810160405280929190818152602001828054600181600116156101000203166002900480156115555780601f1061152a57610100808354040283529160200191611555565b820191906000526020600020905b81548152906001019060200180831161153857829003601f168201915b505050505081565b60125481565b60135481565b6000801515601760029054906101000a900460ff161515146115f3576040517f08c379a000000000000000000000000000000000000000000000000000000000815260040180806020018281038252600d8152602001807f4f7074696f6e20436c6f7365640000000000000000000000000000000000000081525060200191505060405180910390fd5b6001601760026101000a81548160ff02191690831515021790555060135443118015611632575060001515601760009054906101000a900460ff161515145b1561168d57611688600660009054906101000a900473ffffffffffffffffffffffffffffffffffffffff16600c60009054906101000a900473ffffffffffffffffffffffffffffffffffffffff16600e54612e97565b600190505b601454431180156116b1575060011515601760009054906101000a900460ff161515145b1561194957600d54600f54111580156116ce5750600e5460105411155b1561172957611724600560009054906101000a900473ffffffffffffffffffffffffffffffffffffffff16600c60009054906101000a900473ffffffffffffffffffffffffffffffffffffffff16600f54612e97565b600290505b600d54600f541180156117405750600e5460105411155b156117ec57611796600560009054906101000a900473ffffffffffffffffffffffffffffffffffffffff16600c60009054906101000a900473ffffffffffffffffffffffffffffffffffffffff16601154612e97565b6117e7600660009054906101000a900473ffffffffffffffffffffffffffffffffffffffff16600c60009054906101000a900473ffffffffffffffffffffffffffffffffffffffff16600e54612e97565b600390505b600e546010541180156118025750600d54600f54115b156118c25761186c600660009054906101000a900473ffffffffffffffffffffffffffffffffffffffff16600c60009054906101000a900473ffffffffffffffffffffffffffffffffffffffff16611867601254600e5461318390919063ffffffff16565b612e97565b6118bd600660009054906101000a900473ffffffffffffffffffffffffffffffffffffffff16600360019054906101000a900473ffffffffffffffffffffffffffffffffffffffff16601254612e97565b600490505b600e546010541180156118d95750600d54600f5411155b1561194857611943600660009054906101000a900473ffffffffffffffffffffffffffffffffffffffff16600c60009054906101000a900473ffffffffffffffffffffffffffffffffffffffff1661193e601254600e5461318390919063ffffffff16565b612e97565b600590505b5b600360019054906101000a900473ffffffffffffffffffffffffffffffffffffffff1673ffffffffffffffffffffffffffffffffffffffff1663748feebe3033846040518463ffffffff1660e01b8152600401808473ffffffffffffffffffffffffffffffffffffffff1681526020018373ffffffffffffffffffffffffffffffffffffffff1681526020018281526020019350505050600060405180830381600087803b1580156119fa57600080fd5b505af1158015611a0e573d6000803e3d6000fd5b5050505050565b600e5481565b600160009054906101000a900473ffffffffffffffffffffffffffffffffffffffff1673ffffffffffffffffffffffffffffffffffffffff163373ffffffffffffffffffffffffffffffffffffffff1614611a7557600080fd5b600160009054906101000a900473ffffffffffffffffffffffffffffffffffffffff1673ffffffffffffffffffffffffffffffffffffffff1660008054906101000a900473ffffffffffffffffffffffffffffffffffffffff1673ffffffffffffffffffffffffffffffffffffffff167f8be0079c531659141344cd1fd0a4f28419497f9722a3daafe3b4186f6b6457e060405160405180910390a3600160009054906101000a900473ffffffffffffffffffffffffffffffffffffffff166000806101000a81548173ffffffffffffffffffffffffffffffffffffffff021916908373ffffffffffffffffffffffffffffffffffffffff1602179055506000600160006101000a81548173ffffffffffffffffffffffffffffffffffffffff021916908373ffffffffffffffffffffffffffffffffffffffff160217905550565b60011515600360009054906101000a900460ff16151514611c40576040517f08c379a00000000000000000000000000000000000000000000000000000000081526004018080602001828103825260138152602001807f5354455020494e544f205448452045544845520000000000000000000000000081525060200191505060405180910390fd5b80600860006101000a81548173ffffffffffffffffffffffffffffffffffffffff021916908373ffffffffffffffffffffffffffffffffffffffff160217905550601454431115611c9057600080fd5b600073ffffffffffffffffffffffffffffffffffffffff16600c60009054906101000a900473ffffffffffffffffffffffffffffffffffffffff1673ffffffffffffffffffffffffffffffffffffffff1614158015611d3d57503373ffffffffffffffffffffffffffffffffffffffff16600c60009054906101000a900473ffffffffffffffffffffffffffffffffffffffff1673ffffffffffffffffffffffffffffffffffffffff1614155b15611d4757600080fd5b601254600e5410611d5757600080fd5b6000600660009054906101000a900473ffffffffffffffffffffffffffffffffffffffff1673ffffffffffffffffffffffffffffffffffffffff166323b872dd33306012546040518463ffffffff1660e01b8152600401808473ffffffffffffffffffffffffffffffffffffffff1681526020018373ffffffffffffffffffffffffffffffffffffffff1681526020018281526020019350505050602060405180830381600087803b158015611e0c57600080fd5b505af1158015611e20573d6000803e3d6000fd5b505050506040513d6020811015611e3657600080fd5b81019080805190602001909291905050509050600015158115151415611e5b57600080fd5b611e72601254600e5461319d90919063ffffffff16565b600e8190555033600c60006101000a81548173ffffffffffffffffffffffffffffffffffffffff021916908373ffffffffffffffffffffffffffffffffffffffff160217905550611ec16131b7565b600360019054906101000a900473ffffffffffffffffffffffffffffffffffffffff1673ffffffffffffffffffffffffffffffffffffffff1663a6efc1013033856040518463ffffffff1660e01b8152600401808473ffffffffffffffffffffffffffffffffffffffff1681526020018373ffffffffffffffffffffffffffffffffffffffff1681526020018273ffffffffffffffffffffffffffffffffffffffff1681526020019350505050600060405180830381600087803b158015611f8857600080fd5b505af1158015611f9c573d6000803e3d6000fd5b505050505050565b60608083905060608390506060600482518451010167ffffffffffffffff81118015611fcf57600080fd5b506040519080825280601f01601f1916602001820160405280156120025781602001600182028036833780820191505090505b50905060608190506000805b855181101561207c5785818151811061202357fe5b602001015160f81c60f81b83838060010194508151811061204057fe5b60200101907effffffffffffffffffffffffffffffffffffffffffffffffffffffffffffff1916908160001a905350808060010191505061200e565b5060005b84518110156120ee5784818151811061209557fe5b602001015160f81c60f81b8383806001019450815181106120b257fe5b60200101907effffffffffffffffffffffffffffffffffffffffffffffffffffffffffffff1916908160001a9053508080600101915050612080565b50829550505050505092915050565b60008054906101000a900473ffffffffffffffffffffffffffffffffffffffff1681565b600560009054906101000a900473ffffffffffffffffffffffffffffffffffffffff1681565b600f5481565b60165481565b600960009054906101000a900473ffffffffffffffffffffffffffffffffffffffff1681565b600660009054906101000a900473ffffffffffffffffffffffffffffffffffffffff1681565b600860009054906101000a900473ffffffffffffffffffffffffffffffffffffffff1681565b600c60009054906101000a900473ffffffffffffffffffffffffffffffffffffffff1681565b60008054906101000a900473ffffffffffffffffffffffffffffffffffffffff1673ffffffffffffffffffffffffffffffffffffffff163373ffffffffffffffffffffffffffffffffffffffff161461224357600080fd5b8273ffffffffffffffffffffffffffffffffffffffff1682826040518082805190602001908083835b6020831061228f578051825260208201915060208101905060208303925061226c565b6001836020036101000a03801982511681845116808217855250505050505090500191505060006040518083038185875af1925050503d80600081146122f1576040519150601f19603f3d011682016040523d82523d6000602084013e6122f6565b606091505b505050505050565b600a60009054906101000a900473ffffffffffffffffffffffffffffffffffffffff1681565b601760009054906101000a900460ff1681565b60008054906101000a900473ffffffffffffffffffffffffffffffffffffffff1673ffffffffffffffffffffffffffffffffffffffff163373ffffffffffffffffffffffffffffffffffffffff161461238f57600080fd5b85881015801561239f5750848710155b612411576040517f08c379a000000000000000000000000000000000000000000000000000000000815260040180806020018281038252600f8152602001807f494c4c4547414c4520414d4f554e54000000000000000000000000000000000081525060200191505060405180910390fd5b60001515600360009054906101000a900460ff1615151461247d576040517f08c379a00000000000000000000000000000000000000000000000000000000081526004018080602001828103825260298152602001806143a66029913960400191505060405180910390fd5b8082106124f2576040517f08c379a000000000000000000000000000000000000000000000000000000000815260040180806020018281038252601d8152602001807f4e4f2054494d45204d414348494e4520494e205448452047415241474500000081525060200191505060405180910390fd5b6001600360006101000a81548160ff02191690831515021790555087600f8190555086601081905550856011819055508460128190555083600b60006101000a81548173ffffffffffffffffffffffffffffffffffffffff021916908373ffffffffffffffffffffffffffffffffffffffff16021790555082600c60006101000a81548173ffffffffffffffffffffffffffffffffffffffff021916908373ffffffffffffffffffffffffffffffffffffffff1602179055508143016013819055508043016014819055508160158190555080601681905550600360019054906101000a900473ffffffffffffffffffffffffffffffffffffffff1673ffffffffffffffffffffffffffffffffffffffff16630319a0a830338b8b8b8b8b8b8b8b6040518b63ffffffff1660e01b8152600401808b73ffffffffffffffffffffffffffffffffffffffff1681526020018a73ffffffffffffffffffffffffffffffffffffffff1681526020018981526020018881526020018781526020018681526020018573ffffffffffffffffffffffffffffffffffffffff1681526020018473ffffffffffffffffffffffffffffffffffffffff1681526020018381526020018281526020019a5050505050505050505050600060405180830381600087803b1580156126e057600080fd5b505af11580156126f4573d6000803e3d6000fd5b505050505050505050505050565b600b60009054906101000a900473ffffffffffffffffffffffffffffffffffffffff1681565b60145443111561273757600080fd5b3373ffffffffffffffffffffffffffffffffffffffff16600b60009054906101000a900473ffffffffffffffffffffffffffffffffffffffff1673ffffffffffffffffffffffffffffffffffffffff161461279157600080fd5b600f54600d54106127a157600080fd5b6000600d54600f54039050818111156127b8578190505b6000600560009054906101000a900473ffffffffffffffffffffffffffffffffffffffff1673ffffffffffffffffffffffffffffffffffffffff166323b872dd3330856040518463ffffffff1660e01b8152600401808473ffffffffffffffffffffffffffffffffffffffff1681526020018373ffffffffffffffffffffffffffffffffffffffff1681526020018281526020019350505050602060405180830381600087803b15801561286b57600080fd5b505af115801561287f573d6000803e3d6000fd5b505050506040513d602081101561289557600080fd5b810190808051906020019092919050505090506000151581151514156128ba57600080fd5b81600d5401600d81905550600360019054906101000a900473ffffffffffffffffffffffffffffffffffffffff1673ffffffffffffffffffffffffffffffffffffffff166387b6df3e303386600d546040518563ffffffff1660e01b8152600401808573ffffffffffffffffffffffffffffffffffffffff1681526020018473ffffffffffffffffffffffffffffffffffffffff168152602001838152602001828152602001945050505050600060405180830381600087803b15801561298057600080fd5b505af1158015612994573d6000803e3d6000fd5b50505050505050565b60025481565b600360019054906101000a900473ffffffffffffffffffffffffffffffffffffffff1681565b600160009054906101000a900473ffffffffffffffffffffffffffffffffffffffff1681565b60011515600360009054906101000a900460ff16151514612a78576040517f08c379a00000000000000000000000000000000000000000000000000000000081526004018080602001828103825260138152602001807f5354455020494e544f205448452045544845520000000000000000000000000081525060200191505060405180910390fd5b80600760006101000a81548173ffffffffffffffffffffffffffffffffffffffff021916908373ffffffffffffffffffffffffffffffffffffffff160217905550601454431115612ac857600080fd5b600073ffffffffffffffffffffffffffffffffffffffff16600b60009054906101000a900473ffffffffffffffffffffffffffffffffffffffff1673ffffffffffffffffffffffffffffffffffffffff1614158015612b7557503373ffffffffffffffffffffffffffffffffffffffff16600b60009054906101000a900473ffffffffffffffffffffffffffffffffffffffff1673ffffffffffffffffffffffffffffffffffffffff1614155b15612b7f57600080fd5b601154600d5410612b8f57600080fd5b6000600560009054906101000a900473ffffffffffffffffffffffffffffffffffffffff1673ffffffffffffffffffffffffffffffffffffffff166323b872dd33306011546040518463ffffffff1660e01b8152600401808473ffffffffffffffffffffffffffffffffffffffff1681526020018373ffffffffffffffffffffffffffffffffffffffff1681526020018281526020019350505050602060405180830381600087803b158015612c4457600080fd5b505af1158015612c58573d6000803e3d6000fd5b505050506040513d6020811015612c6e57600080fd5b81019080805190602001909291905050509050600015158115151415612c9357600080fd5b612caa601154600d5461319d90919063ffffffff16565b600d8190555033600b60006101000a81548173ffffffffffffffffffffffffffffffffffffffff021916908373ffffffffffffffffffffffffffffffffffffffff160217905550612cf96131b7565b600360019054906101000a900473ffffffffffffffffffffffffffffffffffffffff1673ffffffffffffffffffffffffffffffffffffffff1663759379003033856040518463ffffffff1660e01b8152600401808473ffffffffffffffffffffffffffffffffffffffff1681526020018373ffffffffffffffffffffffffffffffffffffffff1681526020018273ffffffffffffffffffffffffffffffffffffffff1681526020019350505050600060405180830381600087803b158015612dc057600080fd5b505af1158015612dd4573d6000803e3d6000fd5b505050505050565b60115481565b601760019054906101000a900460ff1681565b60008054906101000a900473ffffffffffffffffffffffffffffffffffffffff1673ffffffffffffffffffffffffffffffffffffffff163373ffffffffffffffffffffffffffffffffffffffff1614612e4d57600080fd5b80600160006101000a81548173ffffffffffffffffffffffffffffffffffffffff021916908373ffffffffffffffffffffffffffffffffffffffff16021790555050565b600d5481565b6000600360019054906101000a900473ffffffffffffffffffffffffffffffffffffffff1673ffffffffffffffffffffffffffffffffffffffff1663d8b073836040518163ffffffff1660e01b815260040160206040518083038186803b158015612f0157600080fd5b505afa158015612f15573d6000803e3d6000fd5b505050506040513d6020811015612f2b57600080fd5b8101908080519060200190929190505050905060008173ffffffffffffffffffffffffffffffffffffffff1663e5c69a3c846016546040518363ffffffff1660e01b8152600401808381526020018281526020019250505060206040518083038186803b158015612f9b57600080fd5b505afa158015612faf573d6000803e3d6000fd5b505050506040513d6020811015612fc557600080fd5b8101908080519060200190929190505050905060008573ffffffffffffffffffffffffffffffffffffffff1663a9059cbb86846040518363ffffffff1660e01b8152600401808373ffffffffffffffffffffffffffffffffffffffff16815260200182815260200192505050602060405180830381600087803b15801561304b57600080fd5b505af115801561305f573d6000803e3d6000fd5b505050506040513d602081101561307557600080fd5b810190808051906020019092919050505090508573ffffffffffffffffffffffffffffffffffffffff1663a9059cbb600360019054906101000a900473ffffffffffffffffffffffffffffffffffffffff166130da858861318390919063ffffffff16565b6040518363ffffffff1660e01b8152600401808373ffffffffffffffffffffffffffffffffffffffff16815260200182815260200192505050602060405180830381600087803b15801561312d57600080fd5b505af1158015613141573d6000803e3d6000fd5b505050506040513d602081101561315757600080fd5b81019080805190602001909291905050505060001515811515141561317b57600080fd5b505050505050565b60008282111561319257600080fd5b818303905092915050565b60008183019050828110156131b157600080fd5b92915050565b6000600360019054906101000a900473ffffffffffffffffffffffffffffffffffffffff1673ffffffffffffffffffffffffffffffffffffffff16632ec6f6ae6040518163ffffffff1660e01b815260040160206040518083038186803b15801561322157600080fd5b505afa158015613235573d6000803e3d6000fd5b505050506040513d602081101561324b57600080fd5b81019080805190602001909291905050509050601154600d54101580156132765750601254600e5410155b801561328457506013544311155b156143a2576001601760006101000a81548160ff0219169083151502179055508073ffffffffffffffffffffffffffffffffffffffff1663af5057d930601054613463600560009054906101000a900473ffffffffffffffffffffffffffffffffffffffff1673ffffffffffffffffffffffffffffffffffffffff166306fdde036040518163ffffffff1660e01b815260040160006040518083038186803b15801561332f57600080fd5b505afa158015613343573d6000803e3d6000fd5b505050506040513d6000823e3d601f19601f82011682018060405250602081101561336d57600080fd5b810190808051604051939291908464010000000082111561338d57600080fd5b838201915060208201858111156133a357600080fd5b82518660018202830111640100000000821117156133c057600080fd5b8083526020830192505050908051906020019080838360005b838110156133f45780820151818401526020810190506133d9565b50505050905090810190601f1680156134215780820380516001836020036101000a031916815260200191505b506040525050506040518060400160405280600381526020017f5f4f500000000000000000000000000000000000000000000000000000000000815250611fa4565b613602600560009054906101000a900473ffffffffffffffffffffffffffffffffffffffff1673ffffffffffffffffffffffffffffffffffffffff166395d89b416040518163ffffffff1660e01b815260040160006040518083038186803b1580156134ce57600080fd5b505afa1580156134e2573d6000803e3d6000fd5b505050506040513d6000823e3d601f19601f82011682018060405250602081101561350c57600080fd5b810190808051604051939291908464010000000082111561352c57600080fd5b8382019150602082018581111561354257600080fd5b825186600182028301116401000000008211171561355f57600080fd5b8083526020830192505050908051906020019080838360005b83811015613593578082015181840152602081019050613578565b50505050905090810190601f1680156135c05780820380516001836020036101000a031916815260200191505b506040525050506040518060400160405280600381526020017f5f4f500000000000000000000000000000000000000000000000000000000000815250611fa4565b600560009054906101000a900473ffffffffffffffffffffffffffffffffffffffff1673ffffffffffffffffffffffffffffffffffffffff1663313ce5676040518163ffffffff1660e01b815260040160206040518083038186803b15801561366a57600080fd5b505afa15801561367e573d6000803e3d6000fd5b505050506040513d602081101561369457600080fd5b81019080805190602001909291905050506040518663ffffffff1660e01b8152600401808673ffffffffffffffffffffffffffffffffffffffff16815260200185815260200180602001806020018460ff168152602001838103835286818151815260200191508051906020019080838360005b83811015613723578082015181840152602081019050613708565b50505050905090810190601f1680156137505780820380516001836020036101000a031916815260200191505b50838103825285818151815260200191508051906020019080838360005b8381101561378957808201518184015260208101905061376e565b50505050905090810190601f1680156137b65780820380516001836020036101000a031916815260200191505b50975050505050505050602060405180830381600087803b1580156137da57600080fd5b505af11580156137ee573d6000803e3d6000fd5b505050506040513d602081101561380457600080fd5b8101908080519060200190929190505050600960006101000a81548173ffffffffffffffffffffffffffffffffffffffff021916908373ffffffffffffffffffffffffffffffffffffffff160217905550600960009054906101000a900473ffffffffffffffffffffffffffffffffffffffff1673ffffffffffffffffffffffffffffffffffffffff1663a9059cbb600b60009054906101000a900473ffffffffffffffffffffffffffffffffffffffff166010546040518363ffffffff1660e01b8152600401808373ffffffffffffffffffffffffffffffffffffffff16815260200182815260200192505050602060405180830381600087803b15801561390c57600080fd5b505af1158015613920573d6000803e3d6000fd5b505050506040513d602081101561393657600080fd5b8101908080519060200190929190505050508073ffffffffffffffffffffffffffffffffffffffff1663af5057d930600f54613b07600660009054906101000a900473ffffffffffffffffffffffffffffffffffffffff1673ffffffffffffffffffffffffffffffffffffffff166306fdde036040518163ffffffff1660e01b815260040160006040518083038186803b1580156139d357600080fd5b505afa1580156139e7573d6000803e3d6000fd5b505050506040513d6000823e3d601f19601f820116820180604052506020811015613a1157600080fd5b8101908080516040519392919084640100000000821115613a3157600080fd5b83820191506020820185811115613a4757600080fd5b8251866001820283011164010000000082111715613a6457600080fd5b8083526020830192505050908051906020019080838360005b83811015613a98578082015181840152602081019050613a7d565b50505050905090810190601f168015613ac55780820380516001836020036101000a031916815260200191505b506040525050506040518060400160405280600381526020017f5f4f500000000000000000000000000000000000000000000000000000000000815250611fa4565b613ca6600660009054906101000a900473ffffffffffffffffffffffffffffffffffffffff1673ffffffffffffffffffffffffffffffffffffffff166395d89b416040518163ffffffff1660e01b815260040160006040518083038186803b158015613b7257600080fd5b505afa158015613b86573d6000803e3d6000fd5b505050506040513d6000823e3d601f19601f820116820180604052506020811015613bb057600080fd5b8101908080516040519392919084640100000000821115613bd057600080fd5b83820191506020820185811115613be657600080fd5b8251866001820283011164010000000082111715613c0357600080fd5b8083526020830192505050908051906020019080838360005b83811015613c37578082015181840152602081019050613c1c565b50505050905090810190601f168015613c645780820380516001836020036101000a031916815260200191505b506040525050506040518060400160405280600381526020017f5f4f500000000000000000000000000000000000000000000000000000000000815250611fa4565b600660009054906101000a900473ffffffffffffffffffffffffffffffffffffffff1673ffffffffffffffffffffffffffffffffffffffff1663313ce5676040518163ffffffff1660e01b815260040160206040518083038186803b158015613d0e57600080fd5b505afa158015613d22573d6000803e3d6000fd5b505050506040513d6020811015613d3857600080fd5b81019080805190602001909291905050506040518663ffffffff1660e01b8152600401808673ffffffffffffffffffffffffffffffffffffffff16815260200185815260200180602001806020018460ff168152602001838103835286818151815260200191508051906020019080838360005b83811015613dc7578082015181840152602081019050613dac565b50505050905090810190601f168015613df45780820380516001836020036101000a031916815260200191505b50838103825285818151815260200191508051906020019080838360005b83811015613e2d578082015181840152602081019050613e12565b50505050905090810190601f168015613e5a5780820380516001836020036101000a031916815260200191505b50975050505050505050602060405180830381600087803b158015613e7e57600080fd5b505af1158015613e92573d6000803e3d6000fd5b505050506040513d6020811015613ea857600080fd5b8101908080519060200190929190505050600a60006101000a81548173ffffffffffffffffffffffffffffffffffffffff021916908373ffffffffffffffffffffffffffffffffffffffff160217905550600a60009054906101000a900473ffffffffffffffffffffffffffffffffffffffff1673ffffffffffffffffffffffffffffffffffffffff1663a9059cbb600c60009054906101000a900473ffffffffffffffffffffffffffffffffffffffff16600f546040518363ffffffff1660e01b8152600401808373ffffffffffffffffffffffffffffffffffffffff16815260200182815260200192505050602060405180830381600087803b158015613fb057600080fd5b505af1158015613fc4573d6000803e3d6000fd5b505050506040513d6020811015613fda57600080fd5b8101908080519060200190929190505050506000600360019054906101000a900473ffffffffffffffffffffffffffffffffffffffff1673ffffffffffffffffffffffffffffffffffffffff166372d45e5d6040518163ffffffff1660e01b815260040160206040518083038186803b15801561405657600080fd5b505afa15801561406a573d6000803e3d6000fd5b505050506040513d602081101561408057600080fd5b81019080805190602001909291905050509050600080600254111561425e578173ffffffffffffffffffffffffffffffffffffffff1663a9059cbb600760009054906101000a900473ffffffffffffffffffffffffffffffffffffffff1660026003600254816140ec57fe5b04036040518363ffffffff1660e01b8152600401808373ffffffffffffffffffffffffffffffffffffffff16815260200182815260200192505050602060405180830381600087803b15801561414157600080fd5b505af1158015614155573d6000803e3d6000fd5b505050506040513d602081101561416b57600080fd5b810190808051906020019092919050505090508173ffffffffffffffffffffffffffffffffffffffff1663a9059cbb600860009054906101000a900473ffffffffffffffffffffffffffffffffffffffff1660026003600254816141cb57fe5b04036040518363ffffffff1660e01b8152600401808373ffffffffffffffffffffffffffffffffffffffff16815260200182815260200192505050602060405180830381600087803b15801561422057600080fd5b505af1158015614234573d6000803e3d6000fd5b505050506040513d602081101561424a57600080fd5b810190808051906020019092919050505090505b600360019054906101000a900473ffffffffffffffffffffffffffffffffffffffff1673ffffffffffffffffffffffffffffffffffffffff16632574fdef3033600960009054906101000a900473ffffffffffffffffffffffffffffffffffffffff16600a60009054906101000a900473ffffffffffffffffffffffffffffffffffffffff166040518563ffffffff1660e01b8152600401808573ffffffffffffffffffffffffffffffffffffffff1681526020018473ffffffffffffffffffffffffffffffffffffffff1681526020018373ffffffffffffffffffffffffffffffffffffffff1681526020018273ffffffffffffffffffffffffffffffffffffffff168152602001945050505050600060405180830381600087803b15801561438757600080fd5b505af115801561439b573d6000803e3d6000fd5b5050505050505b5056fe4e4f204d414e204556455220535445505320494e205448452053414d45205249564552205457494345a264697066735822122011b1ee4c3761311f20f4d0e9faf340ebe1d66e0fa73ebab4898282253d21cd5664736f6c634300060c0033a26469706673582212202a115be1a2c43e27ff529a5fd9757f65ae6f6ef20719af9fc18858a65de9165264736f6c634300060c0033",
  "linkReferences": {},
  "deployedLinkReferences": {}
}