{
  "_format": "hh-sol-artifact-1",
  "contractName": "Trading_Charges",
  "sourceName": "contracts/TradingCharge.sol",
  "abi": [
    {
      "inputs": [
        {
          "internalType": "uint256",
          "name": "amount",
          "type": "uint256"
        },
        {
          "internalType": "uint256",
          "name": "block_span",
          "type": "uint256"
        }
      ],
      "name": "Amount",
      "outputs": [
        {
          "internalType": "uint256",
          "name": "",
          "type": "uint256"
        }
      ],
      "stateMutability": "view",
      "type": "function"
    }
  ],
  "bytecode": "0x608060405234801561001057600080fd5b5060d48061001f6000396000f3fe6080604052348015600f57600080fd5b506004361060285760003560e01c8063e5c69a3c14602d575b600080fd5b606060048036036040811015604157600080fd5b8101908080359060200190929190803590602001909291905050506076565b6040518082815260200191505060405180910390f35b6000806103e88481608357fe5b0490506003810290506000818503905080925050509291505056fea2646970667358221220eaa939cbd864c9cfdf2850fc8b0ad558e97f45aed611bc1f4b872f79e988293564736f6c634300060c0033",
  "linkReferences": {},
  "deployedLinkReferences": {}
}